:020000040800F2
:1000000090040020D9010008830F0008330E000877
:10001000810F0008C1020008C5130008000000009D
:10002000000000000000000000000000A70F000812
:10003000C302000800000000A50F0008A90F000877
:10004000F3010008F3010008F3010008F3010008C0
:10005000F3010008F3010008F3010008F3010008B0
:10006000F3010008F3010008F3010008F3010008A0
:10007000F3010008F3010008F3010008F301000890
:10008000F3010008F3010008F3010008F301000880
:10009000F3010008F3010008F3010008F301000870
:1000A000F3010008F3010008F3010008F301000860
:1000B000F3010008F3010008F3010008F301000850
:1000C000F3010008F3010008F3010008F301000840
:1000D000F3010008F3010008F3010008F301000830
:1000E000F3010008F3010008F3010008F301000820
:1000F000F3010008F3010008F3010008F301000810
:10010000F3010008F3010008F3010008F3010008FF
:10011000F3010008F3010008F3010008F3010008EF
:10012000F3010008F3010008F3010008F3010008DF
:10013000F30100080000000000000000F3010008C7
:10014000F3010008F3010008F3010008F3010008BF
:10015000F3010008F3010008F3010008F3010008AF
:10016000F3010008F3010008F3010008F30100089F
:10017000F3010008F3010008F3010008000000008B
:1001800000000000F3010008000000000000000073
:10019000F30100080000000000000000F301000867
:1001A000000000000000000000000000F301000853
:1001B000F3010008F3010008F3010008F30100084F
:1001C000F3010008DFF80CD000F068F800480047A1
:1001D000E5130008900400200648804706480047C1
:1001E000FEE7FEE7FEE7FEE7FEE7FEE7FEE7FEE7E7
:1001F000FEE7FEE761100008C50100082DE9F05F89
:100200000546002092469B46884606468146402485
:100210001BE0284641464746224600F02FF8534649
:100220005A46C01A914110D311461846224600F092
:1002300016F82D1A67EB01084F46224601200021CF
:1002400000F00DF817EB00094E41201EA4F1010447
:10025000DFDC484631462A464346BDE8F09F202A67
:1002600004DB203A00FA02F1002070479140C2F10D
:10027000200320FA03F3194390407047202A04DB3F
:10028000203A21FA02F00021704721FA02F3D0400F
:10029000C2F120029140084319467047064C074DB1
:1002A00006E0E06840F0010394E807009847103446
:1002B000AC42F6D3FFF78AFFA4140008C414000868
:1002C000FEE7704770B5044600F0EAF80546601C8A
:1002D00002D004480078044400F0E2F8401BA04239
:1002E000FAD370BD000000202DE9F84FDFF874B19B
:1002F00000224FF001084FF0030A4FF00F090BF1F5
:10030000040E00BF0B6808FA02F42340A3426ED12A
:100310004D68022D01D0122D0ED1D50800EB850CB1
:10032000DCF820505607F70E09FA07F6B5430E69B8
:10033000BE402E43CCF82060066855000F790AFABB
:1003400005FC07F0030726EA0C06AF4037430760B9
:100350004E68012E05D0022E03D0112E01D0122E90
:100360000ED18668CF6826EA0C06AF403743876017
:100370004668A6430C79C4F30014944034434460A7
:10038000C4688E6824EA0C04AE402643C6604C68FC
:10039000E40060D5344C256845F480452560246828
:1003A00022F0030504F480440094304C2E19D6F852
:1003B000084895072F0F09FA07F5AC432C4DA842C2
:1003C00001D100251FE02B4DA84201D101251AE0E3
:1003D000294DA84201D1022515E0284DA84201D19E
:1003E000032510E0264DA84202D104250BE032E09F
:1003F000244DA84201D1052505E0234DA84201D195
:10040000062500E00725BD402543C6F80858DBF85F
:1004100000405D464E689C43F60300D51C432C60AB
:10042000DEF8004075464E689C43B60300D51C4379
:100430002C600C4D08352C684E689C43F60200D5A4
:100440001C432C60074D0C352C684E689C43B6024B
:1004500000D51C432C60521C102AFFF453AFBDE89A
:10046000F88F0000003C0140443802400030014059
:10047000000002400004024000080240000C02405C
:1004800000100240001402400018024042694A4035
:10049000426170470AB1816170470904FBE70000BF
:1004A00001488068704700000000002070B504001B
:1004B00004D094F83900002510B106E0012070BD89
:1004C00084F83850204600F017FC242084F83900C6
:1004D0002068C16821F40051C160204600F0EAFDA7
:1004E0002068016921F4904101612068416921F08F
:1004F000220141612068416941F0080141612068A1
:10050000C16841F40051C160E563202084F83900DE
:1005100084F83A00002070BD0248816802781144D6
:1005200081607047000000200B4810B5016841F45D
:1005300000710160016841F480610160016841F46B
:1005400080710160032000F08BF8002000F006F8B5
:1005500000F024F8002010BD003C024070B50D4DA5
:1005600004464FF47A712878B1FBF0F00A49096823
:10057000B1FBF0F000F077FB48B9102C07D2002255
:100580002146501E00F04CF800206C6070BD012028
:1005900070BD0000000000200C0000201F4808B5BE
:1005A000016841F480410160006800F480400090DF
:1005B0001A48001F016841F080510160006800F096
:1005C00080500090032000F04BF8002211466FF09D
:1005D0000B0000F025F8002211466FF00A0000F031
:1005E0001FF8002211466FF0090000F019F80022F0
:1005F0001146501F00F014F800221146101F00F0A1
:100600000FF800221146901E00F00AF80022BDE803
:1006100008401146501E00F003B800004438024064
:10062000F0B40E4B1B680C46C3F30223C3F107055D
:10063000042D00D90425191D072901D2002300E04B
:10064000DB1E012606FA05F1491E214099409E4015
:10065000761E16403143F0BC00F094BC0CED00E077
:10066000064900F0070208684FF6FF03184040EA09
:100670000220034A10430860704700000CED00E0C0
:100680000000FA052DE9F8431748016841F0805150
:1006900001600068154F00F08050012600903E6414
:1006A000FFF7FEFE05464FF47A78114C05E000BFD7
:1006B000FFF7F6FE401B40450DD86068C003F7D534
:1006C0007E64FFF7EDFE0546464607E0FFF7E8FECD
:1006D000401BB04202D90320BDE8F8836068800364
:1006E000F4D50020F8E700004038024000000E4238
:1006F000007000402DE9F0470E46050065D0DFF898
:100700001481D8F80000F7B200F00F00B04207D211
:1007100088F80070D8F8000000F00F00B04254D103
:1007200028683D4C810712D5400703D5206840F466
:10073000E05020602878000703D5206840F460402E
:1007400020602068A96820F0F00008432060287825
:10075000C0072DD0304968680839012812D0022816
:1007600013D0032811D00968890700292DDA2168E0
:1007700021F0030101432160FFF792FE814641F21F
:10078000883A0EE009688903EFE709688901ECE718
:10079000FFF786FEA0EB0901514502D90320BDE811
:1007A000F0872068696800F00C00B0EB810FEFD192
:1007B000D8F80010404601F00F01B14207D9077088
:1007C000006800F00F00B04201D00120E7E7287870
:1007D000400705D52068E96820F4E0500843206010
:1007E0002878000706D52068296920F4604040EA8F
:1007F000C100206000F03CF82168084AC1F30311F1
:10080000515CC840064908600020FFF7A7FE0020A1
:10081000C5E70000003C0240083802408C14000884
:100820000C00002001480068704700000C00002008
:100830000448054900680968044AC1F38221515CF3
:10084000C84070470C000020083802409C14000883
:100850000448054900680968044AC1F34231515C03
:10086000C84070470C000020083802409C14000863
:10087000224810B5006810F00C02214815D021491B
:10088000042A11D01D4C241F082A0FD00C2A0CD189
:100890002268236802F03F025B0221D52068C0F382
:1008A0008810A0FB010120E0084610BD22682368E3
:1008B00002F03F025B0205D52068C0F38810A0FB60
:1008C000010104E02168C1F38811A1FB00010023AC
:1008D000FFF794FC2168C1F30141491C49000AE07B
:1008E0002168C1F38811A1FB00010023FFF786FCFA
:1008F0002168C1F30271B0FBF1F010BD083802406D
:100900000024F4000080BB002DE9F84F0546DFF815
:1009100028B30078ABF10407C007A7F1040451D055
:10092000DBF800105846C1F3810101290FD001689E
:10093000C1F38101022902D13968490207D4006854
:10094000C0F38100032809D13868400206D5206829
:10095000800337D56868002872D033E06868B0F546
:10096000803F10D0B0F5A02F206810D020F4803048
:100970002060206820F4802020606868A8B1FFF71C
:100980008FFD06460DE0206840F48030F4E740F427
:1009900080202060F7E700BFFFF782FD801B6428FE
:1009A00078D820688003F7D50CE0FFF779FD06467C
:1009B00005E000BFFFF774FD801B6428F0D82068B5
:1009C0008003F7D42878DFF8749280074FF0000A8C
:1009D00046D5DBF80010584611F00C0F0FD0016817
:1009E000C1F38101022902D13968490207D50068A3
:1009F000C0F38100032809D13868400206D420687A
:100A0000800715D5E86801281AD111E0E868C0B15F
:100A10000120C9F80000FFF743FD064605E000BFCE
:100A2000FFF73EFD801B0228BAD820688007F7D563
:100A30002068296920F0F80040EAC10020600FE03A
:100A4000F7E0C9F800A0FFF72BFD064605E000BF60
:100A5000FFF726FD801B02281CD820688007F7D4EA
:100A60002878000727D5DFF8D0817548696908F133
:100A70006C0881B101210160FFF712FD064604E018
:100A8000FFF70EFD801B022804D8D8F8000080076D
:100A9000F6D510E089E0C0F800A0FFF701FD06469A
:100AA00005E000BFFFF7FCFC801B02287DD8D8F8CA
:100AB00000008007F6D42878400769D55E484FF0DB
:100AC000000838300068C0000BD45B48383001683B
:100AD00041F08051016000684FF0010800F0805043
:100AE0000090584E3068C00511D4306840F48070D2
:100AF0003060FFF7D5FC009006E000BFFFF7D0FCA8
:100B00000099401A022850D83068C005F6D54A4EE0
:100B1000A868683601280FD00528306810D020F06A
:100B200001003060306820F004003060A868B8B17F
:100B3000FFF7B6FC00900FE0306840F00100F4E7EA
:100B400040F004003060F7E7FFF7AAFC0099411A73
:100B500041F28830814264D830688007F4D50EE0D5
:100B6000FFF79EFC009007E0FFF79AFC0099411AFE
:100B700041F28830814254D830688007F4D4B8F10B
:100B8000000F05D02C483830016821F080510160F9
:100B9000A869A8B3DBF80010C1F38101022948D08D
:100BA0000228C9F860A005D000E03AE0FFF778FC21
:100BB000054639E0FFF774FC064604E0FFF770FCD9
:100BC000801B02282DD820688001F7D4F5E90701A1
:100BD0000843E9681C4A490802EB0141AA6841EA56
:100BE00082110843297C40EA0160297D40EA0170B6
:100BF00038600120C9F86000FFF752FC054606E0A6
:100C000015E000BFFFF74CFC401B022809D8206804
:100C10008001F7D50BE000BFFFF742FC401B022824
:100C200002D90320BDE8F88F20688001F4D40020A9
:100C3000F8E70120F6E700000838024000004742CC
:100C4000800E4742007000400000FFFF4FF0E0219F
:100C50000428086903D020F004000861704740F0C0
:100C60000400FAE7704710B5401EB0F1807F01D351
:100C7000012010BD4FF0E02460610F21601700F0EB
:100C800081F90020A06107202061002010BD10B56F
:100C9000FFF7E8FF10BD70B5040004D094F83900E8
:100CA000002510B106E0012070BD84F838502046C0
:100CB00000F022F8242084F839002068C16821F46B
:100CC0000051C160204600F0F5F92068016921F467
:100CD000904101612068416921F02A014161206849
:100CE000C16841F40051C160E563202084F83900F7
:100CF00084F83A00002070BD10B51A4C03681A48F9
:100D00000121032286B0A34212D1036843F01003ED
:100D10000360006801AB00F01000059050020090E5
:100D2000022083E807000720049069460F4814E07A
:100D30000F4CA34213D1036843F020030360006803
:100D400001AB00F02000059040200090122083E8C5
:100D500007000820049069460648FFF7C5FA06B068
:100D600010BD000000100140443802400000024065
:100D700000140140000802402DE9F843044690F8B1
:100D800039001F4616460D46202850D1A5B19EB108
:100D900094F8380001284AD0012084F838004FF038
:100DA0000008C4F83C80212084F83900FFF778FB64
:100DB000A6848146E68426E00120BDE8F883E08C25
:100DC000401EE084A0684B46B0F5805F4FF0000203
:100DD0004FF080012046009703D000F0C1FAE8B937
:100DE0000DE000F0BDFAC8B928882168C0F30800FA
:100DF0004860206908B16D1C05E0AD1C03E0216866
:100E000015F8010B4860E08C0028D8D14B46002231
:100E100040212046009700F0A3FA08B10320CCE758
:100E2000202084F8390084F838800020C5E70220AB
:100E3000C3E7FEE72DE9F04F4D4887B00024016875
:100E400041F004010160016801F0040105910168AD
:100E500041F080010160016801F0800105910168A5
:100E600041F001010160016801F001010591016893
:100E700041F0020101600068DFF8F8A000F0020014
:100E80000590002282215046FFF704FBDFF8E8803E
:100E9000002218214046FFF7FDFADFF8E0B00022FB
:100EA0004FF4C0615846FFF7F5FA02270125009775
:100EB000CDE90154694650460394FFF715FA3C20EA
:100EC000CDE90004694650460294FFF70DFA472029
:100ED000CDE90004694640460294FFF705FA082070
:100EE0000090CDE90154694640460394FFF7FCF9B0
:100EF00010200326CDE90005CDE9024669464046AB
:100F0000FFF7F2F9A8020090CDE90154694658466E
:100F10000394FFF7E9F94FF45040CDE9000702AA26
:100F20004FF0050882E8500169465846FFF7DCF9A2
:100F30008020CDE90005CDE9024669465046FFF71D
:100F4000D3F902AA4FF4007982E85001CDE9009765
:100F500069465046FFF7C8F9CDF800900396CDE9F1
:100F6000015469465846FFF7BFF907B0BDE8F08F56
:100F700030380240000802400000024000040240F5
:100F8000FEE770470907090E002806DA00F00F0097
:100F900000F1E02080F8141D704700F1E02080F897
:100FA000001470477047704710B5FFF7B5FABDE8F9
:100FB0001040FFF76CBE000030B5274893B0002505
:100FC000016841F080510160006800F0805012908B
:100FD0002248016841F4404101600068022400F4A5
:100FE0004040129001200090000401908001CDE962
:100FF000064006200890AF20CDE909040B9468460E
:101000000C94FFF781FC00B1FEE7FFF73BFB00B15A
:10101000FEE70DA90F2081E831004FF4A050109099
:101020004FF48050119005210DA8FFF763FB00B12C
:10103000FEE7FFF7F7FB4FF47A71B0FBF1F0FFF733
:1010400012FE0420FFF702FE00221146501EFFF799
:10105000E7FA13B030BD0000403802400070004095
:101060001048016841F4700101600F48016841F0C7
:10107000010101600C4A00210832116002680B4B2B
:101080001A400260031D0A4A1A60026822F4802294
:10109000026005480C30016002495806803908603A
:1010A0007047000088ED00E000380240FFFFF6FEC8
:1010B000103000242DE9F04104460068016921F454
:1010C0004052E168114301612168C86849F20C622D
:1010D00090432369A268E5691A4363692B431A4365
:1010E0000243CA602168486920F44072A069104335
:1010F0004861E1696425B1F5004F9748974A216836
:101100004FF032083FD0914201D081427CD1FFF7AD
:101110009FFB00EBC00101EB001061688900B0FB90
:10112000F1F6FFF795FB00EBC00101EB00106168E1
:101130008900B0FBF1F0B0FBF5F06FF01801484307
:1011400006EB800108EB0110B0FBF5F000F0F006B3
:10115000FFF77EFB00EBC00101EB00106168890026
:10116000B0FBF1F0B0FBF5F006EB0016FFF770FBFB
:1011700000EBC00101EB001061688900B0FBF1F7E2
:10118000FFF766FBD2E0914201D081423DD1FFF7EB
:101190005FFB00EBC00101EB001061684900B0FB90
:1011A000F1F0B0FBF5F00601FFF752FB00EBC001D8
:1011B00001EB001061684900B0FBF1F7FFF748FB55
:1011C00000EBC00101EB001061684900B0FBF1F0D9
:1011D000B0FBF5F06FF01801484307EB800108EB16
:1011E000C100B0FBF5F000F0F80006EB4006FFF799
:1011F0002FFB00EBC00101EB001061684900B0FB60
:10120000F1F7FFF725FB3CE055E0FFF711FB00EBA2
:10121000C00101EB001061684900B0FBF1F0B0FBC8
:10122000F5F00601FFF704FB00EBC00101EB001035
:1012300061684900B0FBF1F7FFF7FAFA00EBC00173
:1012400001EB001061684900B0FBF1F0B0FBF5F074
:101250006FF01801484307EB800108EBC100B0FBB9
:10126000F5F000F0F80006EB4006FFF7E1FA00EBBE
:10127000C00101EB001061684900B0FBF1F7FFF716
:10128000D7FA00EBC00101EB001061684900B0FB28
:10129000F1F0B0FBF5F06FF01801484307EB800167
:1012A00008EBC100B0FBF5F000F007002168304406
:1012B0008860BDE8F081FFF7BBFA00EBC00101EBED
:1012C000001061688900B0FBF1F6FFF7B1FA00EB9E
:1012D000C00101EB001061688900B0FBF1F0B0FBC8
:1012E000F5F06FF01801484306EB800108EB0110A0
:1012F000B0FBF5F000F0F006FFF79AFA00EBC00142
:1013000001EB001061688900B0FBF1F0B0FBF5F073
:1013100006EB0016FFF78CFA00EBC00101EB0010A2
:1013200061688900B0FBF1F7FFF782FA00EBC001BA
:1013300001EB001061688900B0FBF1F0B0FBF5F043
:101340006FF01801484307EB800108EB0110B0FB78
:10135000F5F000F00F00A9E7001401400010014073
:101360002DE9F041984617460E460446069D1DE0BD
:10137000681C1BD02DB1FFF793F8A0EB0800A84222
:1013800014D92068C16821F4D071C1602068416916
:1013900021F001014161202084F8390084F83A00ED
:1013A000002084F838000320BDE8F0812068006840
:1013B00036EA000004D00020B842D9D00020F3E77C
:1013C0000120F9E7FEE702E008C8121F08C1002A61
:1013D000FAD170477047002001E001C1121F002AB6
:1013E000FBD17047FFF7A0F8FFF7E6FDFFF722FDFE
:1013F0001E481D494FF4E13500240160C0E9015445
:101400000C26C460C0E904468461C461FFF743FC54
:1014100000B1FEE71548164940300160C0E90154AB
:10142000C460C0E904468461C461FFF73FF800B1BD
:10143000FEE74FF6FF730C220EA10C48FFF79CFC51
:101440000F4C104D104F26150A20FEF73BFF0821C8
:101450002046FFF71BF802212846FFF717F8314610
:101460003846FFF713F8EFE70010014010000020A6
:10147000001401406170705F73746172740A0D0032
:10148000000002400008024000040240000000008A
:101490000000000001020304060708090000000024
:1014A00001020304C4140008000000201000000022
:1014B000C6130008D41400081000002080040000A7
:1014C000D61300080100000010000000000000001A
:0414D0000024F40000
:04000005080001C529
:00000001FF
