:020000040800F2
:10000000882A0020D90100085F230008CF200008BB
:100010005D230008E5020008392B000800000000FD
:100020000000000000000000000000004926000859
:10003000E903000800000000812300084B260008A7
:10004000F3010008F3010008F3010008F3010008C0
:10005000F3010008F3010008F3010008F3010008B0
:10006000F3010008F3010008F3010008F3010008A0
:10007000F3010008F3010008F3010008E902000899
:10008000F3010008F3010008F3010008F301000880
:10009000F3010008F3010008F3010008F301000870
:1000A000F3010008F3010008F3010008F301000860
:1000B000F3010008F3010008F3010008F301000850
:1000C000F3010008F3010008F3010008E52400082B
:1000D000F1240008F3010008F3010008F30100080F
:1000E000F3010008F3010008F3010008F301000820
:1000F000F3010008F3010008F3010008F301000810
:10010000F3010008F3010008F3010008F3010008FF
:10011000F3010008F3010008F3010008F3010008EF
:10012000F3010008F5020008010300080D030008B0
:10013000F30100080000000000000000F3010008C7
:10014000F3010008F3010008F3010008F3010008BF
:10015000190300082D03000839030008F301000803
:10016000F3010008F3010008F3010008F30100089F
:10017000F3010008F3010008F3010008000000008B
:1001800000000000F3010008000000000000000073
:10019000F30100080000000000000000F301000867
:1001A000000000000000000000000000F301000853
:1001B000F3010008F3010008F3010008F30100084F
:1001C000F3010008DFF80CD000F07AF8004800478F
:1001D000152C0008882A002006488047064800475A
:1001E000FEE7FEE7FEE7FEE7FEE7FEE7FEE7FEE7E7
:1001F000FEE7FEE715270008C50100082DE9F05FBE
:100200000546002092469B46884606468146402485
:100210001BE0284641464746224600F041F8534637
:100220005A46C01A914110D311461846224600F092
:1002300028F82D1A67EB01084F46224601200021BD
:1002400000F01FF817EB00094E41201EA4F1010435
:10025000DFDC484631462A464346BDE8F09F40EA87
:1002600001039B0703D009E008C9121F08C0042A34
:10027000FAD203E011F8013B00F8013B521EF9D21B
:100280007047202A04DB203A00FA02F10020704770
:100290009140C2F1200320FA03F3194390407047C4
:1002A000202A04DB203A21FA02F00021704721FACB
:1002B00002F3D040C2F12002914008431946704732
:1002C000064C074D06E0E06840F0010394E80700A3
:1002D00098471034AC42F6D3FFF778FFE02D0008C2
:1002E000002E0008FEE70000014800F091B8000071
:1002F00044140020014800F08BB800008413002053
:10030000014800F085B8000064150020014800F0A5
:100310007FB80000E413002010B5034800F078F81F
:10032000BDE8104002F01ABCA4140020014800F0FF
:100330006FB80000C4150020014800F069B8000043
:100340000415002001681823CAB2103AB2FBF3F278
:10035000054B6FF30901032A9B5CC36500D9091D96
:100360008165084670470000C02D000810B50146A1
:1003700000208B698A6A4FF0C07453B1B3F5005FF7
:1003800015D072B1012A0CD0022A0AD0032A09D151
:1003900004E01AB1012A06D0022A03D1C96AC901B0
:1003A00000D5012010BDC96AA142FAD010BD002AB3
:1003B000F7D0012AF2D0022AF3D0032AF3D010BDDD
:1003C00030B50468256825F48025256004686360DD
:1003D0008368402B036803D099600068C26030BD19
:1003E0009A600068C16030BD704790F835100229EE
:1003F00003D08021416501207047052180F8351028
:100400000068016821F001010160002070470000D0
:100410002DE9F84304464FF00009CDF800906348F9
:100420004FF41651A56D0068B0FBF1F72E6894F8F3
:100430005C10082000FA01F131420FD021680A68EF
:1004400052070BD50A6822F004020A6094F85C1087
:100450008840A860606D40F00100606594F85C1011
:100460004FF0010808FA01F0304208D021684969CC
:10047000090604D5A860606D40F00200606594F83C
:100480005C1004208840304208D021680968890740
:1004900004D5A860606D40F00400606594F85C10BD
:1004A00010208840304218D021680968090714D507
:1004B000A86020680168490304D50068000308D5D6
:1004C000A16C07E00168C90503D4016821F00801A7
:1004D0000160216C09B12046884794F85C10202007
:1004E0008840304231D021680968C9062DD5A860FE
:1004F00094F8350005282068016806D0490347D5DF
:10050000006800031DD4616C1CE021F0160101603D
:100510002068416921F080014161206C08B9A06C1C
:1005200020B12068016821F00801016094F85C1096
:100530003F208840A86084F8349084F83580216D8D
:100540001FE0E16B09B120468847606D00282BD081
:10055000606DC00714D0052084F83500206801685C
:1005600021F0010101600098401C0090B84203D8BE
:1005700020680068C007F6D184F8349084F835808C
:10058000E16C002910D001B02046BDE8F0430847D7
:100590000168C905D5D4016821F01001016084F813
:1005A000349084F83580CCE7BDE8F88368000020FB
:1005B0002DE9F041044600F079F906465CB10025CA
:1005C00084F83450022084F835002068016821F056
:1005D000010101600DE00120BDE8F08100F066F945
:1005E000801B052805D920206065032084F835008C
:1005F000F2E720680068C007F0D12268116820483F
:100600000140D4E901031843D4E9033633431843C6
:1006100063691843A3691843E3691843236A1843BD
:100620000843616A042903D1D4E90B131943084331
:10063000106020684069666A20F0070130460E436A
:10064000012704280CD1A06A0643E06A40B1204685
:10065000FFF78CFE20B14020606584F83570BAE762
:10066000206846612046FFF76DFE94F85C203F212C
:1006700091408160656584F835700020ACE700002A
:100680003F8010F02DE9F0410446866D90F834006B
:10069000002501280DD0012084F8340094F835702D
:1006A0000020012F07D084F8340002252846BDE839
:1006B000F0810220FBE7022784F835706065204650
:1006C000FFF77EFE94F85C103F208840B060206801
:1006D000016841F0160101602068416941F0800124
:1006E0004161206C20B12068016841F0080101607F
:1006F0002068016841F001010160D7E72DE9F84F5A
:10070000DFF874B100224FF001084FF0030A4FF0F8
:100710000F090BF1040E00BF0B6808FA02F4234026
:10072000A3426ED14D68022D01D0122D0ED1D508F5
:1007300000EB850CDCF820505607F70E09FA07F697
:10074000B5430E69BE402E43CCF8206006685500C4
:100750000F790AFA05FC07F0030726EA0C06AF40FA
:10076000374307604E68012E05D0022E03D0112EAC
:1007700001D0122E0ED18668CF6826EA0C06AF4053
:10078000374387604668A6430C79C4F3001494404D
:1007900034434460C4688E6824EA0C04AE402643A7
:1007A000C6604C68E40060D5344C256845F480454B
:1007B0002560246822F0030504F480440094304C42
:1007C0002E19D6F8084895072F0F09FA07F5AC43FC
:1007D0002C4DA84201D100251FE02B4DA84201D18C
:1007E00001251AE0294DA84201D1022515E0284D26
:1007F000A84201D1032510E0264DA84202D10425CC
:100800000BE032E0244DA84201D1052505E0234D3F
:10081000A84201D1062500E00725BD402543C6F8C2
:100820000858DBF800405D464E689C43F60300D54F
:100830001C432C60DEF8004075464E689C43B603AE
:1008400000D51C432C600C4D08352C684E689C4329
:10085000F60200D51C432C60074D0C352C684E6801
:100860009C43B60200D51C432C60521C102AFFF496
:1008700053AFBDE8F88F0000003C0140443802400F
:100880000030014000000240000402400008024025
:10089000000C024000100240001402400018024008
:1008A0000AB1816170470904FBE7000001488068D4
:1008B000704700005C00002070B5040004D094F87C
:1008C0003900002510B106E0012070BD84F83850D1
:1008D000204601F08FFA242084F839002068C1688E
:1008E00021F40051C160204601F09EFF206801699B
:1008F00021F4904101612068416921F022014161A8
:100900002068416941F0080141612068C16841F4F3
:100910000051C160E563202084F8390084F83A0072
:10092000002070BD024881680278114481607047E0
:100930005C0000200B4810B5016841F400710160B3
:10094000016841F480610160016841F480710160D7
:10095000032000F097F8002000F006F800F024F8DB
:10096000002010BD003C024070B50D4D04464FF410
:100970007A712878B1FBF0F00A490968B1FBF0F010
:1009800001F0EEF948B9102C07D200222146501E82
:1009900000F058F800206C6070BD012070BD0000B0
:1009A0005C000020680000201F4808B5016841F481
:1009B00080410160006800F4804000901A48001FE8
:1009C000016841F080510160006800F080500090A3
:1009D000032000F057F8002211466FF00B0000F0E2
:1009E00031F8002211466FF00A0000F02BF80022C7
:1009F00011466FF0090000F025F800221146501F43
:100A000000F020F800221146101F00F01BF8002211
:100A10001146901E00F016F80022BDE8084011466D
:100A2000501E00F00FB800004438024000F01F02D2
:100A3000012191404009800000F1E020C0F8001140
:100A400070470000F0B40E4B1B680C46C3F3022342
:100A5000C3F10705042D00D90425191D072901D26A
:100A6000002300E0DB1E012606FA05F1491E2140A5
:100A700099409E40761E16403143F0BC01F070BC98
:100A80000CED00E0064900F0070208684FF6FF038E
:100A9000184040EA0220034A1043086070470000F3
:100AA0000CED00E00000FA052DE9F8431748016855
:100AB00041F0805101600068154F00F08050012620
:100AC00000903E64FFF7F2FE05464FF47A78114C31
:100AD00005E000BFFFF7EAFE401B40450DD8606807
:100AE000C003F7D57E64FFF7E1FE0546464607E002
:100AF000FFF7DCFE401BB04202D90320BDE8F883BB
:100B000060688003F4D50020F8E700004038024018
:100B100000000E4200700040F0B5614A6049064690
:100B200000205D4C5D4B5E4D083A8839012E68D03F
:100B3000022E74D0042E01D0082E45D12E6806F462
:100B4000700637033F0B3FD136150D2E3CD2DFE840
:100B500006F007203C56203B3B3B3C3B3B3B5100D7
:100B6000086841024F48016801F03F0102D4B4FB1C
:100B7000F1F101E0B3FBF1F102680068C2F3036236
:100B8000C0F388104843B0FBF2F12868C0F304209A
:100B900016E008684002106800F03F0002D4B4FB81
:100BA000F0F001E0B3FBF0F011681268C1F30361EB
:100BB000C2F388124243B2FBF1F1286800F01F0033
:100BC00010F10100B1FBF0F0F0BD086840020868C8
:100BD00000F03F0002D4B4FBF0F001E0B3FBF0F012
:100BE0000A680968C2F30272C1F388114143B1FB7C
:100BF000F2F0F0BD0868400201D42046F0BD18466E
:100C0000F0BD2D6815F0C0653BD0B5F1007FF6D082
:100C1000B5F1806F12D0B5F1C06FF1D12DE01FE0BA
:100C2000B3FBF0F002E000BFB4FBF0F01168C1F3D9
:100C3000881141431068C0F30270C3E7086840029E
:100C4000086800F03F0023D5B3FBF0F00A68C2F358
:100C5000881242430868C0F30270B2FBF0F0F0BDA6
:100C60002D6815F0C0550CD0B5F1006FC7D0B5F1A7
:100C7000805FE3D0B5F1C05FF1D108684002BED417
:100C8000BBE708684002106800F03F00CCD5C7E71A
:100C9000B4FBF0F0DAE700000024F4000080BB00B1
:100CA0008C380240883802402DE9F84F044600266F
:100CB0000078F84D3746C00708D02868A16B20F0AF
:100CC000C06008432860A06B00B901262078800727
:100CD00008D52868E16B20F0C05008432860E06B1D
:100CE00000B90126207840070ED52868216B20F432
:100CF000401008432860206BB0F5801F01D010B170
:100D000002E0012600E00127207800070ED52868C0
:100D1000616B20F4400008432860606BB0F5800FE1
:100D200001D010B102E0012600E0012720784FF049
:100D3000000A80064FF0010B63D5D6484C38016895
:100D400041F0805101600068DFF84C9300F0805062
:100D50000090D9F8001041F48071C9F80010FFF735
:100D6000A5FD804606E000BFFFF7A0FDA0EB080050
:100D700002286FD8D9F80000C005F5D5DFF8148334
:100D8000A8F11C08D8F8000010F4407024D0B4F882
:100D9000401001F4407181421ED0D8F80010BF4AC3
:100DA00021F44071C2F800B0C2F800A0C8F80010E9
:100DB000D8F80000C0070FD0FFF778FD814607E0A4
:100DC000FFF774FDA0EB090141F288308142D0D8D1
:100DD000D8F800008007F3D5216CAE48C1F301229A
:100DE0008438032A37D0016821F4F811C0F80010C4
:100DF000D8F80010B4F84020C2F30B021143C8F831
:100E000000102078C00604D5A54894F85810C0F802
:100E1000E01120780106A34805D50168E26C21F4B1
:100E20004001114301602178490605D50168A26C93
:100E300021F08061114301602188C90514D5016842
:100E4000626D21F0006111430160616DB1F1006FCD
:100E500009D009E01DE10268934B22F4F812194011
:100E60000A430260C4E701272188890505D5016886
:100E7000626C21F08051114301602188DFF82C92CF
:100E8000490509D50168226D21F000511143016027
:100E9000206DB0F1005F04D01EB92068B0F5006F7E
:100EA0007ED18349C1F868A0FFF700FD794E8046E6
:100EB0008C3E05E0FFF7FAFCA0EB0800022886D87C
:100EC00030680001F6D421687A48CA0701D0A26BC5
:100ED0001AB1890717D5E16BA9B901680268C1F396
:100EE0000141491CD4E9013C43EA8C1321F0004C38
:100EF000C2F3036209EB0C4141EA02610B43217D1D
:100F000043EA0171016021684A0703D5226BB2F5FB
:100F1000801F05D0090721D5616BB1F5800F1DD168
:100F200001680268C1F30141491CD4E9013C43EA6C
:100F30008C1321F0004C09EB0C4194F810C0C2F363
:100F4000027241EA0C610B4343EA027101602968B5
:100F5000A26A21F01F01521E114329602188490510
:100F60001AD5216DB1F1005F16D101680268C1F395
:100F70000141491CD4E9013C43EA8C13D4F80CC06C
:100F8000C2F302724FEA5C0809EB084C4CEA41617B
:100F90000B4343EA027101602188090511D500E085
:100FA0001FE0D4E9011241EA8211E268530809EB1B
:100FB0000342237C42EA03621143227D41EA02712B
:100FC00001603B49C1F868B0FFF770FC804605E05E
:100FD000FFF76CFCA0EB0800022874D83068000111
:100FE000F6D5EFB3DFF8C880C8F870A0FFF75EFC55
:100FF000304E0746843E04E0FFF758FCC01B022831
:1010000061D83068C0438000F6D521682A484A0775
:1010100001D5226B1AB109071DD5616BD9B90168D9
:10102000D4E90623C1F30141491C42EA831221F0AD
:10103000004309EB034194F8243041EA03610A4379
:1010400002602968E26A6FF0FF0321F4F85103EBB4
:101050000222114329602188C90514D5616D00E081
:1010600038E0B1F1006F0ED10168D4E9062342EAFD
:101070008312236AC1F303615C0809EB044343EA6A
:1010800001610A430260C8F870B0FFF70FFC044624
:101090001CE018E08C38024000700040400E4742CF
:1010A0000010474294380240FFFCFF0F0000FFFF92
:1010B000000047428438024088380240FFF7F6FBC0
:1010C000001B022802D90320BDE8F88F3068C04316
:1010D0008000F3D40020F7E72DE9F0470E46050025
:1010E00065D0DFF81481D8F80000F7B200F00F00E7
:1010F000B04207D288F80070D8F8000000F00F0066
:10110000B04254D128683D4C810712D5400703D521
:10111000206840F4E05020602878000703D520685C
:1011200040F4604020602068A96820F0F000084387
:1011300020602878C0072DD0304968680839012818
:1011400012D0022813D0032811D00968890700297A
:101150002DDA216821F0030101432160FFF7A6FB8E
:10116000814641F2883A0EE009688903EFE7096891
:101170008901ECE7FFF79AFBA0EB0901514502D981
:101180000320BDE8F0872068696800F00C00B0EB30
:10119000810FEFD1D8F80010404601F00F01B142A5
:1011A00007D90770006800F00F00B04201D001209D
:1011B000E7E72878400705D52068E96820F4E05083
:1011C000084320602878000706D52068296920F4A4
:1011D000604040EAC100206000F03CF82168084A05
:1011E000C1F30311515CC840064908600020FFF7B5
:1011F000BBFB0020C5E70000003C0240083802406D
:10120000C82D0008680000200148006870470000F1
:10121000680000200448054900680968044AC1F3D1
:101220008221515CC84070476800002008380240A5
:10123000D82D00080448054900680968044AC1F32C
:101240004231515CC84070476800002008380240B5
:10125000D82D0008224810B5006810F00C02214873
:1012600015D02149042A11D01D4C241F082A0FD063
:101270000C2A0CD12268236802F03F025B0221D5C0
:101280002068C0F38810A0FB010120E0084610BDD3
:101290002268236802F03F025B0205D52068C0F394
:1012A0008810A0FB010104E02168C1F38811A1FBB3
:1012B00000010023FEF7A2FF2168C1F30141491C90
:1012C00049000AE02168C1F38811A1FB0001002355
:1012D000FEF794FF2168C1F30271B0FBF1F010BD7D
:1012E000083802400024F4000080BB002DE9F84FCC
:1012F0000546DFF828B30078ABF10407C007A7F173
:10130000040451D0DBF800105846C1F381010129D3
:101310000FD00168C1F38101022902D13968490265
:1013200007D40068C0F38100032809D1386840025F
:1013300006D52068800337D56868002872D033E06E
:101340006868B0F5803F10D0B0F5A02F206810D0AD
:1013500020F480302060206820F4802020606868BD
:10136000A8B1FFF7A3FA06460DE0206840F48030EC
:10137000F4E740F480202060F7E700BFFFF796FA1B
:10138000801B642878D820688003F7D50CE0FFF72D
:101390008DFA064605E000BFFFF788FA801B642837
:1013A000F0D820688003F7D42878DFF8749280079B
:1013B0004FF0000A46D5DBF80010584611F00C0F2C
:1013C0000FD00168C1F38101022902D139684902B5
:1013D00007D50068C0F38100032809D138684002AE
:1013E00006D42068800715D5E86801281AD111E0D5
:1013F000E868C0B10120C9F80000FFF757FA0646B7
:1014000005E000BFFFF752FA801B0228BAD8206817
:101410008007F7D52068296920F0F80040EAC1006C
:1014200020600FE0F7E0C9F800A0FFF73FFA06469A
:1014300005E000BFFFF73AFA801B02281CD820689D
:101440008007F7D42878000727D5DFF8D0817548C2
:10145000696908F16C0881B101210160FFF726FA82
:10146000064604E0FFF722FA801B022804D8D8F8C9
:1014700000008007F6D510E089E0C0F800A0FFF773
:1014800015FA064605E000BFFFF710FA801B022898
:101490007DD8D8F800008007F6D42878400769D5B1
:1014A0005E484FF0000838300068C0000BD45B483D
:1014B0003830016841F08051016000684FF0010848
:1014C00000F080500090584E3068C00511D430684C
:1014D00040F480703060FFF7E9F9009006E000BF4B
:1014E000FFF7E4F90099401A022850D83068C00587
:1014F000F6D54A4EA868683601280FD0052830680E
:1015000010D020F001003060306820F0040030601E
:10151000A868B8B1FFF7CAF900900FE0306840F052
:101520000100F4E740F004003060F7E7FFF7BEF990
:101530000099411A41F28830814264D830688007AE
:10154000F4D50EE0FFF7B2F9009007E0FFF7AEF92F
:101550000099411A41F28830814254D8306880079E
:10156000F4D4B8F1000F05D02C483830016821F0D0
:1015700080510160A869A8B3DBF80010C1F38101B4
:10158000022948D00228C9F860A005D000E03AE05E
:10159000FFF78CF9054639E0FFF788F9064604E0C5
:1015A000FFF784F9801B02282DD820688001F7D42A
:1015B000F5E907010843E9681C4A490802EB0141C3
:1015C000AA6841EA82110843297C40EA0160297D2A
:1015D00040EA017038600120C9F86000FFF766F941
:1015E000054606E015E000BFFFF760F9401B022842
:1015F00009D820688001F7D50BE000BFFFF756F946
:10160000401B022802D90320BDE8F88F2068800122
:10161000F4D40020F8E70120F6E700000838024083
:1016200000004742800E4742007000400000FFFF6C
:1016300090F8801001290CD0012180F880100168F9
:101640000A6822F400320A60002180F880100846FF
:1016500070470220704790F88010012914D00121B2
:1016600080F8801001680A6842F400320A6001685C
:101670000A68D20303D40A6842F480320A60002167
:1016800080F88010084670470220704770470000BD
:1016900070B504004FF0000504D094F881000026D6
:1016A00010B106E0012070BD84F88060204600F093
:1016B000A1F8022084F88100204600F0CBFE2046ED
:1016C00000F060FE206AA8B1204600F0E3FE216A27
:1016D00000EB800040004902B0FBF1F10A22B1FBAF
:1016E000F2F0B1FBF2F302FB13116062082901D999
:1016F000401C606260684FF4007170B102280CD029
:10170000206C012800D00021A06878B1012808D001
:10171000022809D0032809D106E0206C0128F2D064
:10172000F2E74FF4806501E04FF40065206802683D
:101730002E4B1A400260626B60681043D4E90E239E
:101740001A4310430843A16A284308432169084308
:1017500061690843A18C40EA015120680268114385
:101760000160206841684EF20F0291434160216898
:101770004868A2691043D4E90B231A431043486018
:10178000206881681A4A11408160626DE06C616C6A
:101790000243206D491E08430243A06C6FF0FF0115
:1017A00001EB00200243206883681A4382602068AE
:1017B000C2684FF220031A40C260D4E916021043F7
:1017C000226E01EB0221B4F8642041EA0241084391
:1017D0002168CA681043C860C4F88460012084F896
:1017E000810084F88060002070BD000010C005FFFB
:1017F0000080F8FF2DE9F04306460068274987B0CE
:10180000884248D1264A0025106840B925490B680E
:1018100043F480030B60096801F480010591401CCA
:101820001060022401AB03274FF00608009483E800
:10183000B00169461C48FEF761FF08208DE8B10140
:1018400069461A48FEF75AFF4FF4806901ABCDF89C
:10185000009083E8B00169461548FEF74FFF164C2B
:101860001448C4E90005A5608014E560C4E904904B
:101870008000A0618011E0614002C4E908052046B3
:10188000FEF796FE20B140F2DD110CA001F055F9F3
:101890007467A663346707B0BDE8F083045801405D
:1018A0005800002044380240000802400000024076
:1018B0000004024028640240841300202E2E2F537F
:1018C00072632F73746D3332663478785F68616C3D
:1018D0005F6D73702E63000070B5044629B122B1AC
:1018E00094F88100012802D043E0012070BD94F8F3
:1018F000800001283DD0012084F88000A166A4F872
:101900006C20A4F86E200025C4F88450222084F8AE
:101910008100616F18480864616F1848C863616F7F
:101920001748C864606F05652168B4F86C301C31D5
:10193000A26E606FFEF7A6FE10B184F88050D4E767
:1019400020680168C90303D4016841F48031016053
:101950000021204600F0AEFD21680A6910430861AD
:101960002068016841F40031016084F88050002053
:1019700070BD022070BD0000492400080D2400083D
:10198000C923000810B54FF4F0700B490B4A44000E
:1019900031F82030DB0022F81030401CA042F7DB89
:1019A000012210210648FEF77BFF2246BDE81040C9
:1019B0000249044800F062B9840400202416002083
:1019C000000002405403002010B50749074A0020D8
:1019D0004FF4F07431F82030DB0022F81030401C56
:1019E000A042F7DB10BD0000840400202416002074
:1019F0007047000038B504460068426881684B06AD
:101A000005D4CB0703D0530601D5216C04E08B0726
:101A100007D5130605D5616C01B02046BDE83040FE
:101A2000084711F4B07F48D0930646D54B060AD537
:101A300094F85130032B3DD0636D43F0040363658C
:101A4000C368836800938B0609D5636D43F0010377
:101A5000636583680093036823F040030360C8054F
:101A600006D5606D40F008006065206880680090D1
:101A7000606D002821D02068416821F0E0014160BC
:101A8000012084F85100900718D02068416821F0A7
:101A9000030141600B4DE06C18B10565E06CFEF789
:101AA000A4FCA06C002808D00565A06CBDE83840F7
:101AB000FEF79BBCC1688068009038BD2046FFF7E8
:101AC00097FF38BD1D25000870B5040005D000251E
:101AD000A56294F8510010B106E0012070BD84F8B1
:101AE0005050204600F030F8022084F85100206861
:101AF000016821F040010160D4E901010843D4E903
:101B000003121143084361690843218B01F40071FA
:101B10000843E1690843216A0843A16A0843216830
:101B20000860A069042101EA1040616A0843216845
:101B300048602068C16921F40061C16165650120C8
:101B400084F85100002070BD2DE9F047064600687A
:101B50003A4C0025022103220523402786B04FF48A
:101B600080684FF400694FF4005AA04231D13448E4
:101B7000046844F480540460006800F480500590C8
:101B8000A0208DE8230069462E48CDE90323FEF707
:101B9000B5FD2E4C2C4804F10C0C20608CE820077D
:101BA0004FF0C060C4E901074012C4E90750204665
:101BB0006562FEF7FDFC18B1822125A000F0BDFF93
:101BC000B464002211462320A663FEF73BFF2320C6
:101BD0002FE0264CA0422ED11948001F046844F47F
:101BE00080440460006800F4804005904FF4704029
:101BF0008DE8230069461E48CDE90323FEF77EFDEC
:101C00001D4C1C48A1C41C48A4E8200744F81C59DA
:101C100025626562FEF7CCFC18B1B1210CA000F082
:101C20008CFFB464002211462420A663FEF70AFF4D
:101C30002420FEF7FBFE06B0BDE8F087003001402F
:101C4000443802400000024058640240E41300207F
:101C50002E2E2F5372632F73746D3332663478785F
:101C60005F68616C5F6D73702E6300000038004028
:101C700000040240706002404414002070B5044625
:101C800090F850000026012809D0012084F8500067
:101C900094F851000025012803D002263FE00220DD
:101CA00070BD89B182B1032084F85100656521635C
:101CB000A286E286A56365642564A587E587A0689A
:101CC000B0F5004F02D006E0012628E02068016848
:101CD00041F480410160A16C13480864A16C134871
:101CE000C863A16C1248C864A06C0565E38E2268C5
:101CF000216B0C32A06CFEF7C5FC20680168490618
:101D000003D4016841F0400101602068416841F05E
:101D1000200141602068416841F00201416084F87F
:101D20005050304670BD00004F250008592500086E
:101D30002D250008002210210148FEF7B1BD00004A
:101D40000000024070474FF0E0210428086903D0EA
:101D500020F004000861704740F00400FAE7704783
:101D600010B5401EB0F1807F01D3012010BD4FF0AF
:101D7000E02460610F21601700F0F2FA0020A061FA
:101D800007202061002010BD10B5FFF7E8FF10BD4F
:101D9000704770B5040004D094F83900002510B1E4
:101DA00006E0012070BD84F83850204600F022F88B
:101DB000242084F839002068C16821F40051C160F2
:101DC000204600F031FD2068016921F49041016155
:101DD0002068416921F02A0141612068C16841F40D
:101DE0000051C160E563202084F8390084F83A008E
:101DF000002070BD2DE9F043044603684E484D4F66
:101E0000012103220025061587B04FF04009BB428F
:101E100044D1036843F010030360006801AB00F095
:101E20001000059050020090022083E80700072070
:101E3000049069464148FEF761FC424F40484FF02C
:101E400000683860C7E90185C7E903567D61BD6157
:101E5000FD613D6238467D62FEF7AAFB20B140F28B
:101E60001B1139A000F069FE6763BC633D4F344825
:101E7000C7E903567D61BD61FD613D6230307D6221
:101E800087E801033846FEF793FB10B140F22D11AD
:101E90004BE02763BC6307B0BDE8F083324FBB4221
:101EA000F9D1036843F0200303600068CDF8009087
:101EB00000F02000059001AB122083E80700082005
:101EC0000490C84669462948FEF718FC1C48284F6C
:101ED00048384FF020693860C7E90195C7E90356D3
:101EE0007D61BD61FD613D6238467D62FEF760FB4C
:101EF00020B14FF4AB7114A000F01FFE6763BC6308
:101F00001C4F0F48C7F80880C7E903567D61BD61C3
:101F1000FD613D6218307D62C7E900093846FEF771
:101F200047FB0028B5D04FF4B47107A000F005FEC0
:101F3000AFE70000001001404438024000000240BA
:101F400088640240A41400202E2E2F5372632F7336
:101F5000746D3332663478785F68616C5F6D73706E
:101F60002E63000004150020001401400008024008
:101F700064150020C4150020F8B5044690F83A0016
:101F800020283CD1C1B3BAB394F83800012836D028
:101F9000012084F83800A162A2850025E563222093
:101FA00084F83A00636B1748D863636B164818646B
:101FB000636B1648D864606B134605650846666B0C
:101FC000216802463046091DFEF75CFB2068016867
:101FD0004168009184F83850C16841F48071C16053
:101FE0002068416941F0010141612068416941F087
:101FF000400141610020F8BDFFE70120FBE702201E
:10200000F9E70000B3270008EF2700086927000858
:10201000704770472DE9F843044690F839001F4691
:1020200016460D46202850D1A5B19EB194F838002F
:1020300001284AD0012084F838004FF00008C4F885
:102040003C80212084F83900FEF730FCA6848146CC
:10205000E68426E00120BDE8F883E08C401EE084A1
:10206000A0684B46B0F5805F4FF000024FF0800152
:102070002046009703D000F02DFDE8B90DE000F0F8
:1020800029FDC8B928882168C0F308004860206984
:1020900008B16D1C05E0AD1C03E0216815F8010BCB
:1020A0004860E08C0028D8D14B46002240212046D1
:1020B000009700F00FFD08B10320CCE7202084F842
:1020C000390084F838800020C5E70220C3E7FEE726
:1020D000254808B5016841F480010160016801F4F8
:1020E00080010091016841F4001101600068002244
:1020F00000F40010009011460F20FEF7A3FC0F2003
:10210000FEF794FC002211463920FEF79BFC392093
:10211000FEF78CFC002211463A20FEF793FC3A2091
:10212000FEF784FC002211463B20FEF78BFC3B208F
:10213000FEF77CFC002211464420FEF783FC44207D
:10214000FEF774FC002211464520FEF77BFC45207B
:10215000FEF76CFC002211464620FEF773FCBDE83A
:1021600008404620FEF762BC303802402DE9F047B7
:10217000394886B00024016841F00401016001681B
:1021800001F004010591016841F0800101600168DE
:1021900001F080010591016841F0010101600168D1
:1021A00001F001010591016841F002010160006840
:1021B000DFF8A88000F002000590002210214046C0
:1021C000FEF76EFBDFF89890002280214846FEF76C
:1021D00067FBDFF890A04FF40077002239465046A5
:1021E000FEF75EFB3C20CDE90004694648460294B8
:1021F000FEF784FA4720CDE9000469464046029480
:10220000FEF77CFA10200126CDE900060325694679
:102210004046CDE90245FEF771FA8020CDE900067F
:1022200069464846CDE90245FEF768FA01A9022051
:10223000009781E831000520049069464846FEF782
:102240005DFACDE9007669465046CDE90245FEF7D4
:1022500055FA06B0BDE8F087303802400000024071
:102260000008024000040240174810B515490160FB
:102270000021A023C0E90D130122C1630164C0E95C
:102280000121016193054161C0E90613C16045F276
:10229000226381620362C16213024364C0E91221B6
:1022A0005204C0E9142181658021C16508210166BD
:1022B0004FF6FF714166FFF7EBF9002800D0FEE70B
:1022C00010BD000004580140CC020020104810B599
:1022D0000E4901604FF48271416000214FF40062A9
:1022E000C0E90212022202610122426152028261AD
:1022F0000822C0E90721416281620A21C162FFF719
:10230000E3FB002800D0FEE710BD000000300140D4
:1023100054030020104810B50E4901604FF482713B
:10232000416000214FF40062C0E902120222026102
:1023300001224261920482612022C0E907214162A8
:1023400081620A21C162FFF7BFFB002800D0FEE7CF
:1023500010BD000000380040AC030020FEE77047CD
:102360000907090E002806DA00F00F0000F1E0204E
:1023700080F8141D704700F1E02080F800147047C9
:1023800070470000C26800213AB1012A02D0022A37
:1023900003D101E0102100E020218268032A01D14D
:1023A00041F001010068064A904203D0044A2032FD
:1023B000904202D10248001F00E0024801607047CD
:1023C00004580140005C014010B5846BD4F88400CF
:1023D00040F08000C4F88400206F406D012803D0D5
:1023E000606F406D01280DD12068016821F4003133
:1023F0000160204600F02EF8012084F881000020C2
:10240000A4F86E002046FFF741F910BD10B5846BAB
:1024100000680068C00513D42068016821F4003109
:1024200001600020A4F86E000146204600F042F84A
:102430000146206802698A430261012084F8810014
:102440002046FFF79FFA10BD10B5806BFFF7BCFA6E
:1024500010BD000010B50E4941F6583203680968F6
:10246000B1FBF2F18A001C68002124F480341C6066
:10247000521E06D250F8841F41F040010160032132
:1024800003E003681B68DB03F2D4084610BD0000BC
:102490006800002000680649884203D004492031C2
:1024A000884201D1042000E00820FEF735BB00007F
:1024B000045801400122012900D10922416B4068E2
:1024C000082905D1032801D0012803D142F01002C8
:1024D000032804D0022802D042F00400704742F0E2
:1024E000600070470148FFF785BA000054030020E0
:1024F0000148FFF77FBA0000AC03002038B50B4657
:10250000009204460022802100F053F8002804D0F5
:10251000606D40F020006065032038BD10B5806B11
:102520000021C187C186FFF763FA10BD10B5806B2B
:1025300001684A6822F003024A60416D41F01001CF
:102540004165012180F85110FFF752FA10BD10B516
:10255000806BFFF7F7FB10BD38B50546846BFEF7BF
:10256000A5F9024628680068C0051ED420684168A5
:1025700021F00201416064212046FFF7BFFF18B13E
:10258000606D40F020006065A068002118B92068E7
:10259000C26880680090E186012084F85100606D77
:1025A00018B12046FFF724FA38BD2046FFF7C2FBDA
:1025B00038BD2DE9F0411D4617460E460446DDF8AC
:1025C000188035E0681C33D02DB1FEF76FF9A0EB11
:1025D0000800A8422CD32068416821F0E001416046
:1025E0006068B0F5827F0BD1A068B0F5004F02D0D3
:1025F000B0F5806F04D12068016821F040010160CE
:10260000A06AB0F5005F0AD1206801684DF6FF723C
:10261000114001602068016841F40051016001200F
:1026200084F85100002084F850000320BDE8F081B8
:102630002068806836EA000004D00020B842C1D18A
:102640000020F3E70120F9E7704710B5FEF76AF9BB
:10265000BDE81040FFF798BB30B52C48ABB0002563
:10266000016841F080510160006800F080502990BD
:102670002748016841F4404101600068022400F4E9
:102680004040299001200090000401908001CDE994
:10269000064006200890AF20CDE909040B94684657
:1026A0000C94FEF723FE00B1FEE7FEF7FDF900B142
:1026B000FEE724A90F2081E831004FF4A0502790B5
:1026C0004FF480502890052124A8FEF705FD00B1A5
:1026D000FEE704200D904FF4401019900DA8FEF76E
:1026E000E3FA00B1FEE7FEF78FFD4FF47A71B0FB1D
:1026F000F1F0FFF735FB0420FFF725FB0022114620
:10270000501EFEF79FF92BB030BD0000403802404C
:10271000007000401048016841F4700101600F48EA
:10272000016841F0010101600C4A0021083211608A
:1027300002680B4B1A400260031D0A4A1A600268C5
:1027400022F48022026005480C30016002495806DC
:10275000803908607047000088ED00E000380240D2
:10276000FFFFF6FE1030002470B5846B20684069CE
:1027700094F83910C0F3C0100025212904D118B1F4
:10278000E584204600F046F82068406994F83A1045
:10279000C0F38010222904D118B1E585204600F04D
:1027A0002BF8E06B40F01000E0632046FFF7F0FAF2
:1027B00070BD10B50146806B09680968C90513D45E
:1027C0000021C1850168CA6822F48072CA6001686C
:1027D0004A6922F001024A6101684A6922F0400216
:1027E0004A61202180F83A10FFF712FC10BD10B5A5
:1027F000806BFFF70EFC10BD0168CA6822F490726E
:10280000CA6001684A6922F001024A61202180F809
:102810003A1070470168CA6822F0C002CA602021DD
:1028200080F83910704700002DE9F0410446006837
:10283000016921F44052E168114301612168C868CF
:1028400049F20C6290432369A268E5691A436369FF
:102850002B431A430243CA602168486920F440723E
:10286000A06910434861E1696425B1F5004F9748BC
:10287000974A21684FF032083FD0914201D08142FF
:102880007CD1FEF7D7FC00EBC00101EB00106168C2
:102890008900B0FBF1F6FEF7CDFC00EBC00101EBC7
:1028A000001061688900B0FBF1F0B0FBF5F06FF04B
:1028B0001801484306EB800108EB0110B0FBF5F06E
:1028C00000F0F006FEF7B6FC00EBC00101EB0010D3
:1028D00061688900B0FBF1F0B0FBF5F006EB001683
:1028E000FEF7A8FC00EBC00101EB00106168890055
:1028F000B0FBF1F7FEF79EFCD2E0914201D081429D
:102900003DD1FEF797FC00EBC00101EB00106168C0
:102910004900B0FBF1F0B0FBF5F00601FEF78AFCD0
:1029200000EBC00101EB001061684900B0FBF1F75A
:10293000FEF780FC00EBC00101EB0010616849006C
:10294000B0FBF1F0B0FBF5F06FF01801484307EB76
:10295000800108EBC100B0FBF5F000F0F80006EBD9
:102960004006FEF767FC00EBC00101EB0010616858
:102970004900B0FBF1F7FEF75DFC3CE055E0FEF7E7
:1029800049FC00EBC00101EB001061684900B0FB9D
:10299000F1F0B0FBF5F00601FEF73CFC00EBC001E6
:1029A00001EB001061684900B0FBF1F7FEF732FC63
:1029B00000EBC00101EB001061684900B0FBF1F0D1
:1029C000B0FBF5F06FF01801484307EB800108EB0E
:1029D000C100B0FBF5F000F0F80006EB4006FEF792
:1029E00019FC00EBC00101EB001061684900B0FB6D
:1029F000F1F7FEF70FFC00EBC00101EB001061687E
:102A00004900B0FBF1F0B0FBF5F06FF0180148435E
:102A100007EB800108EBC100B0FBF5F000F0070008
:102A2000216830448860BDE8F081FEF7F3FB00EBDD
:102A3000C00101EB001061688900B0FBF1F6FEF700
:102A4000E9FB00EBC00101EB001061688900B0FBFD
:102A5000F1F0B0FBF5F06FF01801484306EB800190
:102A600008EB0110B0FBF5F000F0F006FEF7D2FB2A
:102A700000EBC00101EB001061688900B0FBF1F0D0
:102A8000B0FBF5F006EB0016FEF7C4FB00EBC0014F
:102A900001EB001061688900B0FBF1F7FEF7BAFBAB
:102AA00000EBC00101EB001061688900B0FBF1F0A0
:102AB000B0FBF5F06FF01801484307EB800108EB1D
:102AC0000110B0FBF5F000F00F00A9E70014014081
:102AD000001001402DE9F041984617460E46044685
:102AE000069D1DE0681C1BD02DB1FDF7DFFEA0EB9D
:102AF0000800A84214D92068C16821F4D071C160CF
:102B00002068416921F001014161202084F83900E9
:102B100084F83A00002084F838000320BDE8F081F2
:102B20002068006836EA000004D00020B842D9D0FE
:102B30000020F3E70120F9E7FEE7FEE702E008C81E
:102B4000121F08C1002AFAD170477047002001E027
:102B500001C1121F002AFBD17047000070B5244C40
:102B600001252046A27800784FF6FF76312A0DD055
:102B70002146322A49781DD0332A2BD0342A3346B5
:102B80004FF0080231D004F11A011CE0334618B1AD
:102B900017490E22223116E0154908220A3115483C
:102BA000FFF738FA00F0AAF800F0DAF800F084F83D
:102BB00025700BE0884302D000F08CF865700C495A
:102BC00007223346C91C0B48FFF724FABDE87040C2
:102BD00000F012B8084203D000F086F800206070C0
:102BE0000349092233463031EDE701491231EAE762
:102BF0001C0000200404002010B5012203490448F1
:102C0000FFF7BAF90028F8D110BD00001E0000201F
:102C1000040400200EB5FDF78DFEFFF71DFDFFF744
:102C2000A5FAFFF755FAFFF751FBFFF773FB1D48B5
:102C30001B494FF4E13500240160C0E901540C2622
:102C4000C460C0E904468461C461FFF7A2F800B122
:102C5000FEE71448144940300160C0E90154C460E3
:102C6000C0E904468461C461FDF726FE00B1FEE7B9
:102C7000FFF7FAFA0DA24FF6FF7307CA8DE80700B7
:102C80000C2269460748FFF7C5F9FFF7B5FF05496C
:102C90004FF470728031A1F5DC70FEF71DFEFEE787
:102CA0000010014004040020001401406170705FB6
:102CB00073746172740A0D0010B520220349044830
:102CC000FEF70AFE0028F8D110BD000070010020B8
:102CD000CC02002010B50348FEF7AAFC0028FAD168
:102CE00010BD0000CC02002010B50348FEF7B3FC75
:102CF0000028FAD110BD0000CC02002010B50D480C
:102D00000D4C00F182014FF6FF73C4E90401084342
:102D10000DD00D2209A10D48FFF77CF92069206034
:102D2000801C2061606960600120E06010BD0F229E
:102D300007A1F0E76C0000200000002062756666C5
:102D40006572735F6F6B0A0D0000000004040020C1
:102D5000627566666572735F6661696C0A0D000074
:102D600070B5362213491448FDF779FA114CE08EFC
:102D7000114DE886A06BA863A08FA887E08FE88735
:102D8000112204F1400105F14000FDF768FA94F8C2
:102D9000510085F85100606D6865084A05F15800DA
:102DA0000021106020F8021B491C4129FADB106049
:102DB00070BD0000AC030020F001002018000020CE
:102DC00000061016000610160000000000000000AB
:102DD00001020304060708090000000001020304C1
:102DE000002E0008000000206C0000003C2B0008B2
:102DF0006C2E00086C0000201C2A00004C2B0008E0
:102E000000000000000000000000000001000000C1
:102E1000000000000000000000000000000000535F
:102E2000544F500A0D0053544152540A0D0052455C
:102E30005345540A0D004552524F520A0D0041505D
:102E4000505F52554E4E494E470A0D00524553555C
:102E50004D450A0D000000000000000001000000C8
:0C2E600010000000000000000024F4003E
:04000005080001C529
:00000001FF
